{
  "contractName": "AssetManagement",
  "abi": [
    {
      "constant": true,
      "inputs": [
        {
          "name": "",
          "type": "uint256"
        }
      ],
      "name": "assembly_store",
      "outputs": [
        {
          "name": "aNumber",
          "type": "uint256"
        },
        {
          "name": "aName",
          "type": "string"
        },
        {
          "name": "aDesc",
          "type": "string"
        },
        {
          "name": "aManuf",
          "type": "string"
        }
      ],
      "payable": false,
      "stateMutability": "view",
      "type": "function"
    },
    {
      "constant": true,
      "inputs": [],
      "name": "accountsCount",
      "outputs": [
        {
          "name": "",
          "type": "uint256"
        }
      ],
      "payable": false,
      "stateMutability": "view",
      "type": "function"
    },
    {
      "constant": true,
      "inputs": [
        {
          "name": "",
          "type": "uint256"
        }
      ],
      "name": "part_store",
      "outputs": [
        {
          "name": "pNumber",
          "type": "uint256"
        },
        {
          "name": "pName",
          "type": "string"
        },
        {
          "name": "pDesc",
          "type": "string"
        },
        {
          "name": "pManuf",
          "type": "string"
        }
      ],
      "payable": false,
      "stateMutability": "view",
      "type": "function"
    },
    {
      "constant": true,
      "inputs": [],
      "name": "assemblyCount",
      "outputs": [
        {
          "name": "",
          "type": "uint256"
        }
      ],
      "payable": false,
      "stateMutability": "view",
      "type": "function"
    },
    {
      "constant": true,
      "inputs": [
        {
          "name": "",
          "type": "uint256"
        }
      ],
      "name": "account_store",
      "outputs": [
        {
          "name": "id",
          "type": "uint256"
        },
        {
          "name": "acc_name",
          "type": "string"
        },
        {
          "name": "acc_desc",
          "type": "string"
        },
        {
          "name": "acc_addr",
          "type": "string"
        },
        {
          "name": "acc_state",
          "type": "string"
        }
      ],
      "payable": false,
      "stateMutability": "view",
      "type": "function"
    },
    {
      "constant": true,
      "inputs": [],
      "name": "partsCount",
      "outputs": [
        {
          "name": "",
          "type": "uint256"
        }
      ],
      "payable": false,
      "stateMutability": "view",
      "type": "function"
    },
    {
      "inputs": [],
      "payable": false,
      "stateMutability": "nonpayable",
      "type": "constructor"
    },
    {
      "anonymous": false,
      "inputs": [
        {
          "indexed": true,
          "name": "_accID",
          "type": "uint256"
        }
      ],
      "name": "accountCreatedEvent",
      "type": "event"
    },
    {
      "anonymous": false,
      "inputs": [
        {
          "indexed": true,
          "name": "_assemNum",
          "type": "uint256"
        }
      ],
      "name": "assemblyCreatedEvent",
      "type": "event"
    },
    {
      "anonymous": false,
      "inputs": [
        {
          "indexed": true,
          "name": "_pNum",
          "type": "uint256"
        }
      ],
      "name": "partCreatedEvent",
      "type": "event"
    },
    {
      "constant": false,
      "inputs": [
        {
          "name": "_Name",
          "type": "string"
        },
        {
          "name": "_Desc",
          "type": "string"
        },
        {
          "name": "_Addr",
          "type": "string"
        },
        {
          "name": "_State",
          "type": "string"
        }
      ],
      "name": "createAccount",
      "outputs": [],
      "payable": false,
      "stateMutability": "nonpayable",
      "type": "function"
    },
    {
      "constant": false,
      "inputs": [
        {
          "name": "_aName",
          "type": "string"
        },
        {
          "name": "_aDesc",
          "type": "string"
        },
        {
          "name": "_aManuf",
          "type": "string"
        },
        {
          "name": "_partIDs",
          "type": "uint256[]"
        }
      ],
      "name": "createAssembly",
      "outputs": [],
      "payable": false,
      "stateMutability": "nonpayable",
      "type": "function"
    },
    {
      "constant": false,
      "inputs": [
        {
          "name": "_pName",
          "type": "string"
        },
        {
          "name": "_pDesc",
          "type": "string"
        },
        {
          "name": "_pManuf",
          "type": "string"
        }
      ],
      "name": "createPart",
      "outputs": [],
      "payable": false,
      "stateMutability": "nonpayable",
      "type": "function"
    },
    {
      "constant": false,
      "inputs": [
        {
          "name": "_index",
          "type": "uint256"
        },
        {
          "name": "owner",
          "type": "string"
        }
      ],
      "name": "updatePartOwner",
      "outputs": [],
      "payable": false,
      "stateMutability": "nonpayable",
      "type": "function"
    },
    {
      "constant": true,
      "inputs": [
        {
          "name": "_index",
          "type": "uint256"
        }
      ],
      "name": "getPartOwners",
      "outputs": [
        {
          "name": "",
          "type": "string[]"
        }
      ],
      "payable": false,
      "stateMutability": "view",
      "type": "function"
    },
    {
      "constant": true,
      "inputs": [
        {
          "name": "_index",
          "type": "uint256"
        }
      ],
      "name": "getCrntPartOwner",
      "outputs": [
        {
          "name": "",
          "type": "string"
        }
      ],
      "payable": false,
      "stateMutability": "view",
      "type": "function"
    },
    {
      "constant": true,
      "inputs": [
        {
          "name": "_index",
          "type": "uint256"
        }
      ],
      "name": "getAssemblyPartList",
      "outputs": [
        {
          "name": "",
          "type": "uint256[]"
        }
      ],
      "payable": false,
      "stateMutability": "view",
      "type": "function"
    }
  ],
  "bytecode": "0x608060405234801561001057600080fd5b50600060018190555060006003819055506000600581905550611921806100386000396000f3006080604052600436106100c5576000357c0100000000000000000000000000000000000000000000000000000000900463ffffffff1680631c1dd2b5146100ca5780631fbe6b331461010757806327538b30146101475780632a083b17146101725780634989b407146101b25780634ae06098146101dd57806352a3fd4014610206578063731d7fa214610247578063752cc42a14610284578063a4aa9e10146102c1578063ef159763146102ea578063f9d2c6cc14610315578063ffc80aae1461033e575b600080fd5b3480156100d657600080fd5b506100f160048036036100ec9190810190611494565b610367565b6040516100fe9190611677565b60405180910390f35b34801561011357600080fd5b5061012e60048036036101299190810190611494565b6103d5565b60405161013e94939291906116d6565b60405180910390f35b34801561015357600080fd5b5061015c6105cd565b60405161016991906116bb565b60405180910390f35b34801561017e57600080fd5b5061019960048036036101949190810190611494565b6105d3565b6040516101a994939291906116d6565b60405180910390f35b3480156101be57600080fd5b506101c76107cb565b6040516101d491906116bb565b60405180910390f35b3480156101e957600080fd5b5061020460048036036101ff91908101906113d1565b6107d1565b005b34801561021257600080fd5b5061022d60048036036102289190810190611494565b6108d7565b60405161023e959493929190611730565b60405180910390f35b34801561025357600080fd5b5061026e60048036036102699190810190611494565b610b6d565b60405161027b9190611699565b60405180910390f35b34801561029057600080fd5b506102ab60048036036102a69190810190611494565b610c5e565b6040516102b89190611655565b60405180910390f35b3480156102cd57600080fd5b506102e860048036036102e3919081019061130e565b610d5d565b005b3480156102f657600080fd5b506102ff610ec5565b60405161030c91906116bb565b60405180910390f35b34801561032157600080fd5b5061033c600480360361033791908101906114bd565b610ecb565b005b34801561034a57600080fd5b5061036560048036036103609190810190611277565b610f22565b005b6060600260008381526020019081526020016000206004018054806020026020016040519081016040528092919081815260200182805480156103c957602002820191906000526020600020905b8154815260200190600101908083116103b5575b50505050509050919050565b6002602052806000526040600020600091509050806000015490806001018054600181600116156101000203166002900480601f0160208091040260200160405190810160405280929190818152602001828054600181600116156101000203166002900480156104875780601f1061045c57610100808354040283529160200191610487565b820191906000526020600020905b81548152906001019060200180831161046a57829003601f168201915b505050505090806002018054600181600116156101000203166002900480601f0160208091040260200160405190810160405280929190818152602001828054600181600116156101000203166002900480156105255780601f106104fa57610100808354040283529160200191610525565b820191906000526020600020905b81548152906001019060200180831161050857829003601f168201915b505050505090806003018054600181600116156101000203166002900480601f0160208091040260200160405190810160405280929190818152602001828054600181600116156101000203166002900480156105c35780601f10610598576101008083540402835291602001916105c3565b820191906000526020600020905b8154815290600101906020018083116105a657829003601f168201915b5050505050905084565b60015481565b6004602052806000526040600020600091509050806000015490806001018054600181600116156101000203166002900480601f0160208091040260200160405190810160405280929190818152602001828054600181600116156101000203166002900480156106855780601f1061065a57610100808354040283529160200191610685565b820191906000526020600020905b81548152906001019060200180831161066857829003601f168201915b505050505090806002018054600181600116156101000203166002900480601f0160208091040260200160405190810160405280929190818152602001828054600181600116156101000203166002900480156107235780601f106106f857610100808354040283529160200191610723565b820191906000526020600020905b81548152906001019060200180831161070657829003601f168201915b505050505090806003018054600181600116156101000203166002900480601f0160208091040260200160405190810160405280929190818152602001828054600181600116156101000203166002900480156107c15780601f10610796576101008083540402835291602001916107c1565b820191906000526020600020905b8154815290600101906020018083116107a457829003601f168201915b5050505050905084565b60035481565b60016000815480929190600101919050555060a0604051908101604052806001548152602001858152602001848152602001838152602001828152506000806001548152602001908152602001600020600082015181600001556020820151816001019080519060200190610847929190611063565b506040820151816002019080519060200190610864929190611063565b506060820151816003019080519060200190610881929190611063565b50608082015181600401908051906020019061089e929190611063565b509050506001547fc0147254f1f9239caf3764ac9cf6d393ea63611013da50f20d76d0af7e719f9660405160405180910390a250505050565b6000602052806000526040600020600091509050806000015490806001018054600181600116156101000203166002900480601f0160208091040260200160405190810160405280929190818152602001828054600181600116156101000203166002900480156109895780601f1061095e57610100808354040283529160200191610989565b820191906000526020600020905b81548152906001019060200180831161096c57829003601f168201915b505050505090806002018054600181600116156101000203166002900480601f016020809104026020016040519081016040528092919081815260200182805460018160011615610100020316600290048015610a275780601f106109fc57610100808354040283529160200191610a27565b820191906000526020600020905b815481529060010190602001808311610a0a57829003601f168201915b505050505090806003018054600181600116156101000203166002900480601f016020809104026020016040519081016040528092919081815260200182805460018160011615610100020316600290048015610ac55780601f10610a9a57610100808354040283529160200191610ac5565b820191906000526020600020905b815481529060010190602001808311610aa857829003601f168201915b505050505090806004018054600181600116156101000203166002900480601f016020809104026020016040519081016040528092919081815260200182805460018160011615610100020316600290048015610b635780601f10610b3857610100808354040283529160200191610b63565b820191906000526020600020905b815481529060010190602001808311610b4657829003601f168201915b5050505050905085565b60606000600460008481526020019081526020016000206004018054905090506004600084815260200190815260200160002060040160018203815481101515610bb357fe5b906000526020600020018054600181600116156101000203166002900480601f016020809104026020016040519081016040528092919081815260200182805460018160011615610100020316600290048015610c515780601f10610c2657610100808354040283529160200191610c51565b820191906000526020600020905b815481529060010190602001808311610c3457829003601f168201915b5050505050915050919050565b606060046000838152602001908152602001600020600401805480602002602001604051908101604052809291908181526020016000905b82821015610d52578382906000526020600020018054600181600116156101000203166002900480601f016020809104026020016040519081016040528092919081815260200182805460018160011615610100020316600290048015610d3e5780601f10610d1357610100808354040283529160200191610d3e565b820191906000526020600020905b815481529060010190602001808311610d2157829003601f168201915b505050505081526020019060010190610c96565b505050509050919050565b600060036000815480929190600101919050555060035460026000600354815260200190815260200160002060000181905550846002600060035481526020019081526020016000206001019080519060200190610dbc9291906110e3565b50836002600060035481526020019081526020016000206002019080519060200190610de99291906110e3565b50826002600060035481526020019081526020016000206003019080519060200190610e169291906110e3565b50600090505b600182510381111515610e8f576002600060035481526020019081526020016000206004018282815181101515610e4f57fe5b9060200190602002015190806001815401808255809150509060018203906000526020600020016000909192909190915055508080600101915050610e1c565b6003547fd24f4c18736db5a478f182acf922ed32fd37b455123b60075bccfc507896b37560405160405180910390a25050505050565b60055481565b60046000838152602001908152602001600020600401819080600181540180825580915050906001820390600052602060002001600090919290919091509080519060200190610f1c9291906110e3565b50505050565b60056000815480929190600101919050555060055460046000600554815260200190815260200160002060000181905550826004600060055481526020019081526020016000206001019080519060200190610f7f9291906110e3565b50816004600060055481526020019081526020016000206002019080519060200190610fac9291906110e3565b50806004600060055481526020019081526020016000206003019080519060200190610fd99291906110e3565b5060046000600554815260200190815260200160002060040181908060018154018082558091505090600182039060005260206000200160009091929091909150908051906020019061102d9291906110e3565b50506005547f2e51be1d08b7a023bfe2848c4ee894416a66a11c11754138fc18d7dd6113a76760405160405180910390a2505050565b828054600181600116156101000203166002900490600052602060002090601f016020900481019282601f106110a457805160ff19168380011785556110d2565b828001600101855582156110d2579182015b828111156110d15782518255916020019190600101906110b6565b5b5090506110df9190611163565b5090565b828054600181600116156101000203166002900490600052602060002090601f016020900481019282601f1061112457805160ff1916838001178555611152565b82800160010185558215611152579182015b82811115611151578251825591602001919060010190611136565b5b50905061115f9190611163565b5090565b61118591905b80821115611181576000816000905550600101611169565b5090565b90565b600082601f830112151561119b57600080fd5b81356111ae6111a9826117cc565b61179f565b915081818352602084019350602081019050838560208402820111156111d357600080fd5b60005b8381101561120357816111e98882611263565b8452602084019350602083019250506001810190506111d6565b5050505092915050565b600082601f830112151561122057600080fd5b813561123361122e826117f4565b61179f565b9150808252602083016020830185838301111561124f57600080fd5b61125a838284611894565b50505092915050565b600061126f823561188a565b905092915050565b60008060006060848603121561128c57600080fd5b600084013567ffffffffffffffff8111156112a657600080fd5b6112b28682870161120d565b935050602084013567ffffffffffffffff8111156112cf57600080fd5b6112db8682870161120d565b925050604084013567ffffffffffffffff8111156112f857600080fd5b6113048682870161120d565b9150509250925092565b6000806000806080858703121561132457600080fd5b600085013567ffffffffffffffff81111561133e57600080fd5b61134a8782880161120d565b945050602085013567ffffffffffffffff81111561136757600080fd5b6113738782880161120d565b935050604085013567ffffffffffffffff81111561139057600080fd5b61139c8782880161120d565b925050606085013567ffffffffffffffff8111156113b957600080fd5b6113c587828801611188565b91505092959194509250565b600080600080608085870312156113e757600080fd5b600085013567ffffffffffffffff81111561140157600080fd5b61140d8782880161120d565b945050602085013567ffffffffffffffff81111561142a57600080fd5b6114368782880161120d565b935050604085013567ffffffffffffffff81111561145357600080fd5b61145f8782880161120d565b925050606085013567ffffffffffffffff81111561147c57600080fd5b6114888782880161120d565b91505092959194509250565b6000602082840312156114a657600080fd5b60006114b484828501611263565b91505092915050565b600080604083850312156114d057600080fd5b60006114de85828601611263565b925050602083013567ffffffffffffffff8111156114fb57600080fd5b6115078582860161120d565b9150509250929050565b600061151c8261183a565b8084526020840193508360208202850161153585611820565b60005b8481101561156e578383038852611550838351611610565b925061155b82611866565b9150602088019750600181019050611538565b508196508694505050505092915050565b600061158a82611845565b80845260208401935061159c8361182d565b60005b828110156115ce576115b2868351611646565b6115bb82611873565b915060208601955060018101905061159f565b50849250505092915050565b60006115e58261185b565b8084526115f98160208601602086016118a3565b611602816118d6565b602085010191505092915050565b600061161b82611850565b80845261162f8160208601602086016118a3565b611638816118d6565b602085010191505092915050565b61164f81611880565b82525050565b6000602082019050818103600083015261166f8184611511565b905092915050565b60006020820190508181036000830152611691818461157f565b905092915050565b600060208201905081810360008301526116b381846115da565b905092915050565b60006020820190506116d06000830184611646565b92915050565b60006080820190506116eb6000830187611646565b81810360208301526116fd8186611610565b905081810360408301526117118185611610565b905081810360608301526117258184611610565b905095945050505050565b600060a0820190506117456000830188611646565b81810360208301526117578187611610565b9050818103604083015261176b8186611610565b9050818103606083015261177f8185611610565b905081810360808301526117938184611610565b90509695505050505050565b6000604051905081810181811067ffffffffffffffff821117156117c257600080fd5b8060405250919050565b600067ffffffffffffffff8211156117e357600080fd5b602082029050602081019050919050565b600067ffffffffffffffff82111561180b57600080fd5b601f19601f8301169050602081019050919050565b6000602082019050919050565b6000602082019050919050565b600081519050919050565b600081519050919050565b600081519050919050565b600081519050919050565b6000602082019050919050565b6000602082019050919050565b6000819050919050565b6000819050919050565b82818337600083830152505050565b60005b838110156118c15780820151818401526020810190506118a6565b838111156118d0576000848401525b50505050565b6000601f19601f83011690509190505600a265627a7a7230582062cc17fdce14c7a1c41f28848e3216a38bd840b8c68fbb495555e49a0c2096716c6578706572696d656e74616cf50037",
  "source": "pragma solidity ^0.4.2;\npragma experimental ABIEncoderV2;\n\ncontract AssetManagement {\n\n/* DATA DECLARATIONS */\n    /* Account Structure */\n    struct Account {\n        uint id;\n        string acc_name;\n        string acc_desc;\n        string acc_addr;\n        string acc_state;\n    }\n    /* Assembly Structure */\n    struct Assembly {\n        uint aNumber;\n        string aName;\n        string aDesc;\n        string aManuf;\n        uint[] parts;\n    }\n    /* Part Structure */\n    struct Part {\n        uint pNumber;\n        string pName;\n        string pDesc;\n        string pManuf;\n        string[] owners;\n    }\n\n    /* Account Store Mapping */\n    mapping(uint => Account) public account_store;\n    uint public accountsCount;\n\n    /* Assembly Store Mapping */\n    mapping(uint => Assembly) public assembly_store;\n    uint public assemblyCount;\n\n    /* Part Store Mapping */\n    mapping(uint => Part) public part_store;\n    uint public partsCount;\n\n\n/* METHOD DECLARATIONS */\n    /* Constructor */\n    constructor () public {\n        accountsCount = 0;\n        assemblyCount = 0;\n        partsCount = 0;\n    }\n    /* Events */\n    event accountCreatedEvent(uint indexed _accID);\n    event assemblyCreatedEvent(uint indexed _assemNum);\n    event partCreatedEvent(uint indexed _pNum);\n\n    /* Create new Account */\n    function createAccount (string _Name, string _Desc, string _Addr, string _State) public {\n        accountsCount++;\n        account_store[accountsCount] = Account(accountsCount, _Name, _Desc, _Addr, _State);\n\n        /* Trigger event */\n        emit accountCreatedEvent(accountsCount);\n    }\n    /* Create new Assembly */\n    function createAssembly (string _aName, string _aDesc, string _aManuf, uint[] memory _partIDs) public {\n        assemblyCount++;\n\n        assembly_store[assemblyCount].aNumber = assemblyCount;\n        assembly_store[assemblyCount].aName = _aName;\n        assembly_store[assemblyCount].aDesc = _aDesc;\n        assembly_store[assemblyCount].aManuf = _aManuf;\n\n        for(uint i = 0; i <= _partIDs.length - 1; i++) {\n            assembly_store[assemblyCount].parts.push(_partIDs[i]);\n        }\n\n        /* Trigger event */\n        emit assemblyCreatedEvent(assemblyCount);\n    }\n    /* Create new parts */\n    function createPart (string _pName, string _pDesc, string _pManuf) public {\n        partsCount++;\n        part_store[partsCount].pNumber = partsCount;\n        part_store[partsCount].pName = _pName;\n        part_store[partsCount].pDesc = _pDesc;\n        part_store[partsCount].pManuf = _pManuf; \n        part_store[partsCount].owners.push(_pManuf);\n        \n        /* Trigger event */\n        emit partCreatedEvent(partsCount);\n    }\n    /* Change the Part Owner */\n    function updatePartOwner(uint _index, string owner) public {\n        part_store[_index].owners.push(owner);\n    }\n    /* Get list of owners for a part */\n    function getPartOwners(uint _index) public view returns (string[] memory) {\n        return part_store[_index].owners;\n    }\n    /* Get latest owner for a part */\n    function getCrntPartOwner(uint _index) public view returns (string memory) {\n        uint length = part_store[_index].owners.length;\n        return part_store[_index].owners[length - 1];\n    }\n    /* Get a list of parts associated with an assembly */\n    function getAssemblyPartList(uint _index) public view returns (uint[] memory) {\n        return assembly_store[_index].parts;\n    }\n}",
  "sourcePath": "/media/moeb/mb_ssd/ethereum/AssetManagementSystem/contracts/AssetManagement.sol",
  "compiler": {
    "name": "solc",
    "version": "0.4.24+commit.e67f0147.Emscripten.clang"
  },
  "schemaVersion": "2.0.1",
  "updatedAt": "2018-12-05T17:57:26.473Z"
}